{
  "_format": "hh-sol-artifact-1",
  "contractName": "TinyKingdoms",
  "sourceName": "contracts/tinykingdoms.sol",
  "abi": [
    {
      "inputs": [],
      "stateMutability": "nonpayable",
      "type": "constructor"
    },
    {
      "anonymous": false,
      "inputs": [
        {
          "indexed": true,
          "internalType": "address",
          "name": "owner",
          "type": "address"
        },
        {
          "indexed": true,
          "internalType": "address",
          "name": "approved",
          "type": "address"
        },
        {
          "indexed": true,
          "internalType": "uint256",
          "name": "tokenId",
          "type": "uint256"
        }
      ],
      "name": "Approval",
      "type": "event"
    },
    {
      "anonymous": false,
      "inputs": [
        {
          "indexed": true,
          "internalType": "address",
          "name": "owner",
          "type": "address"
        },
        {
          "indexed": true,
          "internalType": "address",
          "name": "operator",
          "type": "address"
        },
        {
          "indexed": false,
          "internalType": "bool",
          "name": "approved",
          "type": "bool"
        }
      ],
      "name": "ApprovalForAll",
      "type": "event"
    },
    {
      "anonymous": false,
      "inputs": [
        {
          "indexed": true,
          "internalType": "address",
          "name": "previousOwner",
          "type": "address"
        },
        {
          "indexed": true,
          "internalType": "address",
          "name": "newOwner",
          "type": "address"
        }
      ],
      "name": "OwnershipTransferred",
      "type": "event"
    },
    {
      "anonymous": false,
      "inputs": [
        {
          "indexed": true,
          "internalType": "address",
          "name": "from",
          "type": "address"
        },
        {
          "indexed": true,
          "internalType": "address",
          "name": "to",
          "type": "address"
        },
        {
          "indexed": true,
          "internalType": "uint256",
          "name": "tokenId",
          "type": "uint256"
        }
      ],
      "name": "Transfer",
      "type": "event"
    },
    {
      "inputs": [
        {
          "internalType": "address",
          "name": "to",
          "type": "address"
        },
        {
          "internalType": "uint256",
          "name": "tokenId",
          "type": "uint256"
        }
      ],
      "name": "approve",
      "outputs": [],
      "stateMutability": "nonpayable",
      "type": "function"
    },
    {
      "inputs": [
        {
          "internalType": "address",
          "name": "owner",
          "type": "address"
        }
      ],
      "name": "balanceOf",
      "outputs": [
        {
          "internalType": "uint256",
          "name": "",
          "type": "uint256"
        }
      ],
      "stateMutability": "view",
      "type": "function"
    },
    {
      "inputs": [],
      "name": "claim",
      "outputs": [],
      "stateMutability": "payable",
      "type": "function"
    },
    {
      "inputs": [
        {
          "internalType": "uint256",
          "name": "tokenId",
          "type": "uint256"
        }
      ],
      "name": "getApproved",
      "outputs": [
        {
          "internalType": "address",
          "name": "",
          "type": "address"
        }
      ],
      "stateMutability": "view",
      "type": "function"
    },
    {
      "inputs": [
        {
          "internalType": "address",
          "name": "owner",
          "type": "address"
        },
        {
          "internalType": "address",
          "name": "operator",
          "type": "address"
        }
      ],
      "name": "isApprovedForAll",
      "outputs": [
        {
          "internalType": "bool",
          "name": "",
          "type": "bool"
        }
      ],
      "stateMutability": "view",
      "type": "function"
    },
    {
      "inputs": [],
      "name": "name",
      "outputs": [
        {
          "internalType": "string",
          "name": "",
          "type": "string"
        }
      ],
      "stateMutability": "view",
      "type": "function"
    },
    {
      "inputs": [],
      "name": "owner",
      "outputs": [
        {
          "internalType": "address",
          "name": "",
          "type": "address"
        }
      ],
      "stateMutability": "view",
      "type": "function"
    },
    {
      "inputs": [
        {
          "internalType": "uint256",
          "name": "tokenId",
          "type": "uint256"
        }
      ],
      "name": "ownerOf",
      "outputs": [
        {
          "internalType": "address",
          "name": "",
          "type": "address"
        }
      ],
      "stateMutability": "view",
      "type": "function"
    },
    {
      "inputs": [],
      "name": "renounceOwnership",
      "outputs": [],
      "stateMutability": "nonpayable",
      "type": "function"
    },
    {
      "inputs": [
        {
          "internalType": "address",
          "name": "from",
          "type": "address"
        },
        {
          "internalType": "address",
          "name": "to",
          "type": "address"
        },
        {
          "internalType": "uint256",
          "name": "tokenId",
          "type": "uint256"
        }
      ],
      "name": "safeTransferFrom",
      "outputs": [],
      "stateMutability": "nonpayable",
      "type": "function"
    },
    {
      "inputs": [
        {
          "internalType": "address",
          "name": "from",
          "type": "address"
        },
        {
          "internalType": "address",
          "name": "to",
          "type": "address"
        },
        {
          "internalType": "uint256",
          "name": "tokenId",
          "type": "uint256"
        },
        {
          "internalType": "bytes",
          "name": "_data",
          "type": "bytes"
        }
      ],
      "name": "safeTransferFrom",
      "outputs": [],
      "stateMutability": "nonpayable",
      "type": "function"
    },
    {
      "inputs": [],
      "name": "saleIsActive",
      "outputs": [
        {
          "internalType": "bool",
          "name": "",
          "type": "bool"
        }
      ],
      "stateMutability": "view",
      "type": "function"
    },
    {
      "inputs": [
        {
          "internalType": "address",
          "name": "operator",
          "type": "address"
        },
        {
          "internalType": "bool",
          "name": "approved",
          "type": "bool"
        }
      ],
      "name": "setApprovalForAll",
      "outputs": [],
      "stateMutability": "nonpayable",
      "type": "function"
    },
    {
      "inputs": [
        {
          "internalType": "uint256",
          "name": "newPrice",
          "type": "uint256"
        }
      ],
      "name": "setPrice",
      "outputs": [],
      "stateMutability": "nonpayable",
      "type": "function"
    },
    {
      "inputs": [
        {
          "internalType": "bytes4",
          "name": "interfaceId",
          "type": "bytes4"
        }
      ],
      "name": "supportsInterface",
      "outputs": [
        {
          "internalType": "bool",
          "name": "",
          "type": "bool"
        }
      ],
      "stateMutability": "view",
      "type": "function"
    },
    {
      "inputs": [],
      "name": "symbol",
      "outputs": [
        {
          "internalType": "string",
          "name": "",
          "type": "string"
        }
      ],
      "stateMutability": "view",
      "type": "function"
    },
    {
      "inputs": [
        {
          "internalType": "uint256",
          "name": "index",
          "type": "uint256"
        }
      ],
      "name": "tokenByIndex",
      "outputs": [
        {
          "internalType": "uint256",
          "name": "",
          "type": "uint256"
        }
      ],
      "stateMutability": "view",
      "type": "function"
    },
    {
      "inputs": [
        {
          "internalType": "address",
          "name": "owner",
          "type": "address"
        },
        {
          "internalType": "uint256",
          "name": "index",
          "type": "uint256"
        }
      ],
      "name": "tokenOfOwnerByIndex",
      "outputs": [
        {
          "internalType": "uint256",
          "name": "",
          "type": "uint256"
        }
      ],
      "stateMutability": "view",
      "type": "function"
    },
    {
      "inputs": [
        {
          "internalType": "uint256",
          "name": "tokenId",
          "type": "uint256"
        }
      ],
      "name": "tokenURI",
      "outputs": [
        {
          "internalType": "string",
          "name": "",
          "type": "string"
        }
      ],
      "stateMutability": "view",
      "type": "function"
    },
    {
      "inputs": [],
      "name": "totalSupply",
      "outputs": [
        {
          "internalType": "uint256",
          "name": "",
          "type": "uint256"
        }
      ],
      "stateMutability": "view",
      "type": "function"
    },
    {
      "inputs": [
        {
          "internalType": "address",
          "name": "from",
          "type": "address"
        },
        {
          "internalType": "address",
          "name": "to",
          "type": "address"
        },
        {
          "internalType": "uint256",
          "name": "tokenId",
          "type": "uint256"
        }
      ],
      "name": "transferFrom",
      "outputs": [],
      "stateMutability": "nonpayable",
      "type": "function"
    },
    {
      "inputs": [
        {
          "internalType": "address",
          "name": "newOwner",
          "type": "address"
        }
      ],
      "name": "transferOwnership",
      "outputs": [],
      "stateMutability": "nonpayable",
      "type": "function"
    },
    {
      "inputs": [],
      "name": "withdrawAll",
      "outputs": [],
      "stateMutability": "payable",
      "type": "function"
    }
  ],
  "bytecode": "0x60806040526658d15e17628000600c556001600e60006101000a81548160ff02191690831515021790555060405180611ca00160405280604051806040016040528060058152602001644561676c6560d81b81525081526020016040518060400160405280600a81526020016926b2b234ba30ba34b7b760b11b815250815260200160405180604001604052806008815260200167466f6c6b6c6f726560c01b81525081526020016040518060400160405280600481526020016329ba30b960e11b815250815260200160405180604001604052806005815260200164131a59da1d60da1b815250815260200160405180604001604052806004815260200163506c617960e01b81525081526020016040518060400160405280600681526020016550616c61636560d01b81525081526020016040518060400160405280600a8152602001692bb4b632333637bbb2b960b11b81525081526020016040518060400160405280600681526020016552657363756560d01b81525081526020016040518060400160405280600481526020016308cd2e6d60e31b8152508152602001604051806040016040528060088152602001675061696e74696e6760c01b815250815260200160405180604001604052806006815260200165536861646f7760d01b81525081526020016040518060400160405280600a8152602001692932bb37b63aba34b7b760b11b815250815260200160405180604001604052806006815260200165141b185b995d60d21b81525081526020016040518060400160405280600581526020016453746f726d60d81b81525081526020016040518060400160405280600481526020016313185b9960e21b81525081526020016040518060400160405280600b81526020016a537572726f756e64696e6760a81b81525081526020016040518060400160405280600681526020016514dc1a5c9a5d60d21b81525081526020016040518060400160405280600581526020016427b1b2b0b760d91b815250815260200160405180604001604052806005815260200164139a59da1d60da1b815250815260200160405180604001604052806004815260200163536e6f7760e01b8152508152602001604051806040016040528060058152602001642934bb32b960d91b815250815260200160405180604001604052806005815260200164053686565760dc1b8152508152602001604051806040016040528060068152602001652837b4b9b7b760d11b815250815260200160405180604001604052806005815260200164537461746560d81b815250815260200160405180604001604052806005815260200164466c616d6560d81b8152508152602001604051806040016040528060058152602001642934bb32b960d91b81525081526020016040518060400160405280600581526020016410db1bdd5960da1b8152508152602001604051806040016040528060078152602001662830ba3a32b93760c91b8152508152602001604051806040016040528060058152602001642bb0ba32b960d91b815250815260200160405180604001604052806006815260200165119bdc995cdd60d21b81525081526020016040518060400160405280600681526020016554616374696360d01b8152508152602001604051806040016040528060048152602001634669726560e01b815250815260200160405180604001604052806008815260200167537472617465677960c01b815250815260200160405180604001604052806005815260200164537061636560d81b81525081526020016040518060400160405280600481526020016354696d6560e01b815250815260200160405180604001604052806003815260200162105c9d60ea1b81525081526020016040518060400160405280600681526020016553747265616d60d01b815250815260200160405180604001604052806008815260200167537065637472756d60c01b815250815260200160405180604001604052806005815260200164119b19595d60da1b8152508152602001604051806040016040528060048152602001630536869760e41b815250815260200160405180604001604052806006815260200165537072696e6760d01b81525081526020016040518060400160405280600581526020016453686f726560d81b815250815260200160405180604001604052806005815260200164141b185b9d60da1b8152508152602001604051806040016040528060068152602001654d6561646f7760d01b81525081526020016040518060400160405280600681526020016553797374656d60d01b81525081526020016040518060400160405280600481526020016314185cdd60e21b81525081526020016040518060400160405280600681526020016514185c9c9bdd60d21b8152508152602001604051806040016040528060068152602001655468726f6e6560d01b81525081526020016040518060400160405280600381526020016225b2b760e91b81525081526020016040518060400160405280600781526020016642756666616c6f60c81b81525081526020016040518060400160405280600b81526020016a506572737065637469766560a81b8152508152602001604051806040016040528060048152602001632a32b0b960e11b81525081526020016040518060400160405280600481526020016326b7b7b760e11b81525081526020016040518060400160405280600481526020016326b7b7b760e11b81525081526020016040518060400160405280600481526020016357696e6760e01b81525081526020016040518060400160405280600681526020016529bab6b6b2b960d11b815250815260200160405180604001604052806005815260200164109c9bd85960da1b8152508152602001604051806040016040528060048152602001634f776c7360e01b81525081526020016040518060400160405280600781526020016614d95c9c195b9d60ca1b81525081526020016040518060400160405280600681526020016511195cd95c9d60d21b815250815260200160405180604001604052806005815260200164466f6f6c7360d81b81525081526020016040518060400160405280600681526020016514dc1a5c9a5d60d21b81525081526020016040518060400160405280600781526020016610dc9e5cdd185b60ca1b815250815260200160405180604001604052806007815260200166506572736f6e6160c81b815250815260200160405180604001604052806004815260200163446f766560e01b8152508152602001604051806040016040528060048152602001635269636560e01b81525081526020016040518060400160405280600481526020016343726f7760e01b815250815260200160405180604001604052806004815260200163293ab4b760e11b815250815260200160405180604001604052806005815260200164566f69636560d81b81525081526020016040518060400160405280600781526020016644657374696e7960c81b81525081526020016040518060400160405280600881526020016714d9585cda195b1b60c21b81525081526020016040518060400160405280600981526020016853747275637475726560b81b815250815260200160405180604001604052806004815260200163151bd85960e21b815250815260200160405180604001604052806006815260200165536861646f7760d01b81525081526020016040518060400160405280600781526020016653706172726f7760c81b81525081526020016040518060400160405280600381526020016229bab760e91b815250815260200160405180604001604052806003815260200162536b7960e81b815250815260200160405180604001604052806004815260200163135a5cdd60e21b81525081526020016040518060400160405280600481526020016315da5b9960e21b815250815260200160405180604001604052806005815260200164536d6f6b6560d81b8152508152602001604051806040016040528060088152602001672234bb34b9b4b7b760c11b8152508152602001604051806040016040528060058152602001644f6173697360d81b81525081526020016040518060400160405280600681526020016554756e64726160d01b815250815260200160405180604001604052806007815260200166426c6f73736f6d60c81b81525081526020016040518060400160405280600481526020016344756e6560e01b8152508152602001604051806040016040528060048152602001635472656560e01b81525081526020016040518060400160405280600581526020016414195d185b60da1b8152508152602001604051806040016040528060058152602001640a0cac2c6d60db1b815250815260200160405180604001604052806005815260200164084d2e4c6d60db1b815250815260200160405180604001604052806005815260200164537061636560d81b815250815260200160405180604001604052806006815260200165233637bbb2b960d11b81525081526020016040518060400160405280600681526020016556616c6c657960d01b81525081526020016040518060400160405280600781526020016610d85d1d185a5b60ca1b815250815260200160405180604001604052806007815260200166084ead8e4eae6d60cb1b81525081526020016040518060400160405280600a81526020016957696c6465726e65737360b01b81525081526020016040518060400160405280600681526020016523b4b733b2b960d11b81525081526020016040518060400160405280600681526020016514dd5b9cd95d60d21b815250815260200160405180604001604052806008815260200167149a5d995c98995960c21b815250815260200160405180604001604052806003815260200162466f6760e81b8152508152602001604051806040016040528060048152602001632632b0b360e11b815250815260200160405180604001604052806005815260200164119c9d5a5d60da1b815250815260200160405180604001604052806007815260200166436f756e74727960c81b8152508152602001604051806040016040528060068152602001652834b63630b960d11b815250815260200160405180604001604052806004815260200163109a5c9960e21b81525081526020016040518060400160405280600781526020016652657074696c6560c81b8152508152602001604051806040016040528060068152602001654d656c6f647960d01b815250815260200160405180604001604052806008815260200167556e69766572736560c01b8152508152602001604051806040016040528060078152602001664d616a6573747960c81b8152508152602001604051806040016040528060068152602001654d697261676560d01b8152508152602001604051806040016040528060058152602001644c616b657360d81b81525081526020016040518060400160405280600781526020016612185c9d995cdd60ca1b8152508152602001604051806040016040528060068152602001650aec2e4dae8d60d31b8152508152602001604051806040016040528060058152602001642332bb32b960d91b81525081526020016040518060400160405280600781526020016614dd1a5c9c995960ca1b81525081526020016040518060400160405280600681526020016513dc98da1a5960d21b815250815260200160405180604001604052806004815260200163526f636b60e01b81525081526020016040518060400160405280600481526020016350696e6560e01b815250815260200160405180604001604052806004815260200163121a5b1b60e21b81525081526020016040518060400160405280600581526020016453746f6e6560d81b81525081526020016040518060400160405280600581526020016414d8d95b9d60da1b81525081526020016040518060400160405280600581526020016427b1b2b0b760d91b8152508152602001604051806040016040528060048152602001635469646560e01b815250815260200160405180604001604052806005815260200164447265616d60d81b815250815260200160405180604001604052806003815260200162426f6760e81b8152508152602001604051806040016040528060048152602001634d6f737360e01b81525081526020016040518060400160405280600681526020016521b0b73cb7b760d11b815250815260200160405180604001604052806005815260200164477261766560d81b81525081526020016040518060400160405280600581526020016444616e636560d81b815250815260200160405180604001604052806004815260200163121a5b1b60e21b81525081526020016040518060400160405280600681526020016556616c6c657960d01b8152508152602001604051806040016040528060048152602001634361766560e01b8152508152602001604051806040016040528060068152602001654d6561646f7760d01b81525081526020016040518060400160405280600a815260200169213630b1b5ba3437b93760b11b8152508152602001604051806040016040528060088152602001674d757368726f6f6d60c01b815250815260200160405180604001604052806008815260200167109b1d5958995b1b60c21b8152508152602001604051806040016040528060058152602001642bb0ba32b960d91b81525081526020016040518060400160405280600381526020016244657760e81b815250815260200160405180604001604052806003815260200162135d5960ea1b81525081526020016040518060400160405280600681526020016546616d696c7960d01b81525081526020016040518060400160405280600681526020016523b0b93232b760d11b81525081526020016040518060400160405280600581526020016453746f726b60d81b815250815260200160405180604001604052806009815260200168427574746572666c7960b81b81525081526020016040518060400160405280600481526020016314d9595960e21b81525081526020016040518060400160405280600881526020016742697264736f6e6760c01b8152508152602001604051806040016040528060078152602001664c756c6c61627960c81b81525081526020016040518060400160405280600781526020016643757063616b6560c81b8152508152602001604051806040016040528060048152602001630aed2e6d60e31b8152508152602001604051806040016040528060088152602001672630bab3b43a32b960c11b81525081526020016040518060400160405280600581526020016411da1bdcdd60da1b81525081526020016040518060400160405280600881526020016747617264656e696160c01b8152508152602001604051806040016040528060088152602001672630bb32b73232b960c11b8152508152602001604051806040016040528060048152602001635361676560e01b81525081526020016040518060400160405280600a8152602001695374726177626572727960b01b8152508152602001604051806040016040528060078152602001665065616368657360c81b8152508152602001604051806040016040528060048152602001632832b0b960e11b815250815260200160405180604001604052806004815260200163526f736560e01b81525081526020016040518060400160405280600781526020016654686973746c6560c81b815250815260200160405180604001604052806005815260200164054756c69760dc1b81525081526020016040518060400160405280600581526020016415da19585d60da1b8152508152602001604051806040016040528060058152602001642a3437b93760d91b815250815260200160405180604001604052806006815260200165159a5bdb195d60d21b81525081526020016040518060400160405280600d81526020016c4368727973616e7468656d756d60981b815250815260200160405180604001604052806008815260200167082dac2e4c2dce8d60c31b81525081526020016040518060400160405280600481526020016321b7b93760e11b81525081526020016040518060400160405280600981526020016829bab7333637bbb2b960b91b81525081526020016040518060400160405280600781526020016653706172726f7760c81b815250815260200160405180604001604052806003815260200162536b7960e81b815250815260200160405180604001604052806005815260200164446169737960d81b8152508152602001604051806040016040528060058152602001644170706c6560d81b8152508152602001604051806040016040528060038152602001624f616b60e81b8152508152602001604051806040016040528060048152602001632132b0b960e11b81525081526020016040518060400160405280600481526020016350696e6560e01b815250815260200160405180604001604052806005815260200164506f70707960d81b81525081526020016040518060400160405280600b81526020016a4e69676874696e67616c6560a81b81525081526020016040518060400160405280600b81526020016a135bd8dada5b99d89a5c9960aa1b81525081526020016040518060400160405280600381526020016249636560e81b815250815260200160405180604001604052806008815260200167446179627265616b60c01b81525081526020016040518060400160405280600581526020016410dbdc985b60da1b815250815260200160405180604001604052806008815260200167111859999bd91a5b60c21b815250815260200160405180604001604052806009815260200168427574746572666c7960b81b815250815260200160405180604001604052806004815260200163506c756d60e01b8152508152602001604051806040016040528060048152602001632332b93760e11b8152508152602001604051806040016040528060088152602001675369646577616c6b60c01b8152508152602001604051806040016040528060058152602001644c696c616360d81b81525081526020016040518060400160405280600381526020016245676760e81b81525081526020016040518060400160405280600b81526020016a121d5b5b5a5b99d89a5c9960aa1b8152508152602001604051806040016040528060058152602001641219585c9d60da1b815250815260200160405180604001604052806005815260200164437265656b60d81b81525081526020016040518060400160405280600681526020016542726964676560d01b81525081526020016040518060400160405280600c81526020016b2330b63634b733902632b0b360a11b8152508152602001604051806040016040528060068152602001654c7570696e6560d01b815250815260200160405180604001604052806005815260200164437265656b60d81b81525081526020016040518060400160405280600d81526020016c125c9a5cc8105b595d1a1e5cdd609a1b8152508152602001604051806040016040528060048152602001635275627960e01b815250815260200160405180604001604052806007815260200166111a585b5bdb9960ca1b8152508152602001604051806040016040528060078152602001665361706869726560c81b81525081526020016040518060400160405280600681526020016528bab0b93a3d60d11b815250815260200160405180604001604052806004815260200163436c617960e01b81525081526020016040518060400160405280600481526020016310dbd85b60e21b815250815260200160405180604001604052806005815260200164213934b0b960d91b8152508152602001604051806040016040528060048152602001634475736b60e01b81525081526020016040518060400160405280600481526020016314d85b9960e21b8152508152602001604051806040016040528060058152602001645363616c6560d81b8152508152602001604051806040016040528060048152602001635761766560e01b81525081526020016040518060400160405280600581526020016414985c1a5960da1b8152508152602001604051806040016040528060058152602001641419585c9b60da1b81525081526020016040518060400160405280600481526020016313dc185b60e21b815250815260200160405180604001604052806004815260200163111d5cdd60e21b81525081526020016040518060400160405280600981526020016853616e63747561727960b81b8152508152602001604051806040016040528060078152602001660a0d0decadcd2f60cb1b8152508152602001604051806040016040528060098152602001684d6f6f6e73746f6e6560b81b815250815260200160405180604001604052806005815260200164416761746560d81b81525081526020016040518060400160405280600481526020016313dc185b60e21b8152508152602001604051806040016040528060098152602001684d616c61636869746560b81b8152508152602001604051806040016040528060048152602001634a61646560e01b81525081526020016040518060400160405280600781526020016614195c9a591bdd60ca1b8152508152602001604051806040016040528060058152602001642a37b830bd60d91b81525081526020016040518060400160405280600981526020016854757271756f69736560b81b81525081526020016040518060400160405280600a815260200169417175616d6172696e6560b01b815250815260200160405180604001604052806008815260200167105b595d1a1e5cdd60c21b81525081526020016040518060400160405280600681526020016511d85c9b995d60d21b815250815260200160405180604001604052806007815260200166111a585b5bdb9960ca1b815250815260200160405180604001604052806007815260200166115b595c985b1960ca1b8152508152602001604051806040016040528060048152602001635275627960e01b815250815260200160405180604001604052806008815260200167536170706869726560c01b815250815260200160405180604001604052806005815260200164547970686160d81b815250815260200160405180604001604052806005815260200164536564676560d81b81525081526020016040518060400160405280600481526020016315dbdbd960e21b815250815250600f9060e562002055929190620041d4565b50604080516104a081018252600761046082018181526610d95b9d1c985b60ca1b61048084015282528251808401845260048152634672656560e01b60208281019190915280840191909152835180850185526006815265155b9a5d195960d21b81830152838501528351808501855260098082526814dbd8da585b1a5cdd60ba1b8284015260608501919091528451808601865260138082527f416e6369656e742052657075626c6963206f6600000000000000000000000000828501526080860191909152855180870187526011808252702a3434b932102932b83ab13634b19037b360791b8286015260a0870191909152865180880188529485526622b0b9ba32b93760c91b8585015260c08601949094528551808701875260058082526421bcb132b960d91b8286015260e0870191909152865180880188526008808252672737b93a3432b93760c11b8287015261010088019190915287518089018952600c8082526b2737b93a343bb2b9ba32b93760a11b828801526101208901919091528851808a018a52601281527123b0b630b1ba34b19022b6b834b9329037b360711b818801526101408901528851808a018a528281526729b7baba3432b93760c11b818801526101608901528851808a018a528381526429b7b630b960d91b818801526101808901528851808a018a52600a8082526924b9b630b732399037b360b11b828901526101a08a01919091528951808b018b529081526925b4b733b237b69037b360b11b818801526101c08901528851808a018a528281526729ba30ba329037b360c11b818801526101e08901528851808a018a52600d8082526c2332b232b930ba34b7b71037b360991b828901526102008a01919091528951808b018b5260108082526f21b7b73332b232b930ba34b7b71037b360811b828a01526102208b01919091528a51808c018c52600b8082526a20b63634b0b731b29037b360a91b828b01526102408c01919091528b51808d018d528181526a20b9b9b2b6b1363c9037b360a91b818b01526102608c01528b51808d018d52978852682932b3b4b7b71037b360b91b888a01526102808b01979097528a51808c018c5284815267293ab4b7399037b360c11b818a01526102a08b01528a51808c018c529283526b21b0b634b83430ba329037b360a11b838901526102c08a01929092528951808b018b528681526a2932b83ab13634b19037b360a91b818901526102e08a01528951808b018b529586526a283937bb34b731b29037b360a91b868801526103008901959095528851808a018a529283526411dc985b9960da1b838701526103208801929092528751808901895290815267223ab1b43c9037b360c11b8186015261034087015286518088018852601581527f4361706974616c2046656465726174696f6e206f6600000000000000000000008186015261036087015286518088018852601681527f4175746f6e6f6d6f75732050726f76696e6365206f6600000000000000000000818601526103808701528651808801885294855270233932b2902232b6b7b1b930b1bc9037b360791b858501526103a0860194909452855180870187528181527f4665646572616c2052657075626c6963206f6600000000000000000000000000818501526103c0860152855180870187529081527f556e69746172792052657075626c6963206f6600000000000000000000000000818401526103e085015284518086018652601481527f4175746f6e6f6d6f757320526567696d65206f66000000000000000000000000818401526104008501528451808601865260038152624e657760e81b81840152610420850152845180860190955284526c27b6321022b6b834b9329037b360991b90840152610440820192909252620025ca9190602362004238565b50604080516104008101825260056103c0820181815264084cac2c6d60db1b6103e084015282528251808401845260068082526521b2b73a32b960d11b60208381019190915280850192909252845180860186526004808252634369747960e01b8285015285870191909152855180870187528481526410dbd85cdd60da1b8185015260608601528551808701875284815264437265656b60d81b818501526080860152855180870187526007808252664573746174657360c81b8286015260a0870191909152865180880188528581526446616c6c7360d81b8186015260c0870152865180880188528581526447726f766560d81b8186015260e087015286518088018852818152664865696768747360c81b818601526101008701528651808801885282815263121a5b1b60e21b81860152610120870152865180880188528581526448696c6c7360d81b818601526101408701528651808801885283815265125cdb185b9960d21b8186015261016087015286518088018852828152634c616b6560e01b8186015261018087015286518088018852858152644c616b657360d81b818601526101a087015286518088018852918252635061726b60e01b828501526101c08601919091528551808701875284815264141bda5b9d60da1b818501526101e08601528551808701875284815264526964676560d81b8185015261020086015285518087018752848152642934bb32b960d91b818501526102208601528551808701875281815266537072696e677360c81b81850152610240860152855180870187528281526556616c6c657960d01b81850152610260860152855180870187529081526656696c6c61676560c81b818401526102808501528451808601865283815264576f6f647360d81b818401526102a0850152845180860186528181526557617465727360d01b818401526102c0850152845180860186528181526552697665727360d01b818401526102e08501528451808601865281815265506f696e747360d01b818401526103008501528451808601865260098152684d6f756e7461696e7360b81b8184015261032085015284518086018652600f81526e566f6c63616e69632052696467657360881b81840152610340850152845180860186529283526444756e657360d81b838301526103608401929092528351808501855282815265436c6966667360d01b8183015261038084015283518085019094529083526514dd5b5b5a5d60d21b908301526103a08101919091526200297b90601190601e6200428a565b50604051806102a001604052806040518060800160405280604051806040016040528060078152602001662330303644373760c81b8152508152602001604051806040016040528060078152602001662338334335424560c81b81525081526020016040518060400160405280600781526020016611a3232222221960c91b8152508152602001604051806040016040528060078152602001662366616632653560c81b81525081525081526020016040518060800160405280604051806040016040528060078152602001662333353146333960c81b8152508152602001604051806040016040528060078152602001662337323641393560c81b8152508152602001604051806040016040528060078152602001660233731394642360cc1b81525081526020016040518060400160405280600781526020016608d98d998d195960ca1b81525081525081526020016040518060800160405280604051806040016040528060078152602001662334373245324160c81b81525081526020016040518060400160405280600781526020016611a29b9c209a1b60c91b8152508152602001604051806040016040528060078152602001662346414334353960c81b81525081526020016040518060400160405280600781526020016611b331b2b3323360c91b81525081525081526020016040518060800160405280604051806040016040528060078152602001662330443142324160c81b8152508152602001604051806040016040528060078152602001662332463438363560c81b8152508152602001604051806040016040528060078152602001662337423838413760c81b8152508152602001604051806040016040528060078152602001662366666638653760c81b81525081525081526020016040518060800160405280604051806040016040528060078152602001662345393531343560c81b8152508152602001604051806040016040528060078152602001662346384239313760c81b81525081526020016040518060400160405280600781526020016611a3232119209960c91b815250815260200160405180604001604052806007815260200166046cc60cc60ca760cb1b815250815250815260200160405180608001604052806040518060400160405280600781526020016608d0cd4d114e0d60ca1b81525081526020016040518060400160405280600781526020016611a3182123199b60c91b8152508152602001604051806040016040528060078152602001661199a09b1ba19960c91b8152508152602001604051806040016040528060078152602001662346364631454360c81b81525081525081526020016040518060800160405280604051806040016040528060078152602001662345363633353760c81b8152508152602001604051806040016040528060078152602001662334393746453360c81b815250815260200160405180604001604052806007815260200166119c22a09aa32360c91b8152508152602001604051806040016040528060078152602001660234631463046360cc1b815250815250815260200160405180608001604052806040518060400160405280600781526020016611a2a21ba29b1960c91b81525081526020016040518060400160405280600781526020016608d18d108d8dcd60ca1b815250815260200160405180604001604052806007815260200166119a221a9c9c2160c91b81525081526020016040518060400160405280600781526020016608d18cd151115160ca1b81525081525081526020016040518060800160405280604051806040016040528060078152602001662344334545394560c81b81525081526020016040518060400160405280600781526020016604660606c7066760cb1b81525081526020016040518060400160405280600781526020016608ce4d90d18c8d60ca1b8152508152602001604051806040016040528060078152602001660468c848c848c760cb1b81525081525081526020016040518060800160405280604051806040016040528060078152602001662346464538463560c81b8152508152602001604051806040016040528060078152602001662338373536443160c81b8152508152602001604051806040016040528060078152602001662344383730394360c81b8152508152602001604051806040016040528060078152602001662366616632653560c81b81525081525081526020016040518060800160405280604051806040016040528060078152602001662335333335343960c81b81525081526020016040518060400160405280600781526020016611a31b21181a1960c91b8152508152602001604051806040016040528060078152602001662346394544344560c81b81525081526020016040518060400160405280600781526020016608d98d998d195960ca1b81525081525081526020016040518060800160405280604051806040016040528060078152602001662338313735413360c81b8152508152602001604051806040016040528060078152602001662341333735394560c81b815250815260200160405180604001604052806007815260200166119a1a19a19aa160c91b81525081526020016040518060400160405280600781526020016611b331b2b3323360c91b81525081525081526020016040518060800160405280604051806040016040528060078152602001662337383845413560c81b8152508152602001604051806040016040528060078152602001662333443443354360c81b8152508152602001604051806040016040528060078152602001662337423531373960c81b8152508152602001604051806040016040528060078152602001662366666638653760c81b81525081525081526020016040518060800160405280604051806040016040528060078152602001660233535334336360cc1b8152508152602001604051806040016040528060078152602001660234646423041360cc1b8152508152602001604051806040016040528060078152602001662346463637343960c81b815250815260200160405180604001604052806007815260200166046cc60cc60ca760cb1b8152508152508152602001604051806080016040528060405180604001604052806007815260200166119c9ca198a11960c91b8152508152602001604051806040016040528060078152602001662334394332393360c81b815250815260200160405180604001604052806007815260200166119a1b1b9a1b1960c91b8152508152602001604051806040016040528060078152602001662346364631454360c81b815250815250815260200160405180608001604052806040518060400160405280600781526020016611a2a1a12320a360c91b81525081526020016040518060400160405280600781526020016608cc0c4dcdcc8d60ca1b8152508152602001604051806040016040528060078152602001662330453237333360c81b8152508152602001604051806040016040528060078152602001660234631463046360cc1b81525081525081526020016040518060800160405280604051806040016040528060078152602001662344324445423160c81b8152508152602001604051806040016040528060078152602001662335363742414560c81b8152508152602001604051806040016040528060078152602001662336304246334360c81b81525081526020016040518060400160405280600781526020016608d18cd151115160ca1b81525081525081526020016040518060800160405280604051806040016040528060078152602001660234644453530360cc1b8152508152602001604051806040016040528060078152602001662335384244424360c81b81525081526020016040518060400160405280600781526020016608d151918c111160ca1b8152508152602001604051806040016040528060078152602001660468c848c848c760cb1b81525081525081526020016040518060800160405280604051806040016040528060078152602001662332663230343360c81b8152508152602001604051806040016040528060078152602001662366373639373560c81b81525081526020016040518060400160405280600781526020016611a29ba29c21a160c91b8152508152602001604051806040016040528060078152602001662366616632653560c81b81525081525081526020016040518060800160405280604051806040016040528060078152602001662335454332323760c81b8152508152602001604051806040016040528060078152602001662333303246333560c81b8152508152602001604051806040016040528060078152602001662336334244423360c81b81525081526020016040518060400160405280600781526020016608d98d998d195960ca1b81525081525081526020016040518060800160405280604051806040016040528060078152602001662337353937346160c81b8152508152602001604051806040016040528060078152602001662363383365336360c81b8152508152602001604051806040016040528060078152602001660236633393134360cc1b81525081526020016040518060400160405280600781526020016611b331b2b3323360c91b8152508152508152506012906015620036e2929190620042dc565b5060408051610440810190915260af6103608201818152829161032083019182916200867e61038086013981526020016040518060400160405280600a8152602001692934b9b4b7339029bab760b11b8152508152508152602001604051806040016040528060405180610120016040528060fe81526020016200934060fe913981526020016040518060400160405280601081526020016f15995c9d1a58d85b08151c9a58985b9960821b815250815250815260200160405180604001604052806040518060c00160405280609c815260200162008f29609c913981526020016040518060400160405280600781526020016621b432bb3937b760c91b8152508152508152602001604051806040016040528060405180610140016040528061011a8152602001620088dd61011a913981526020016040518060400160405280600c81526020016b4e6f726469632043726f737360a01b815250815250815260200160405180604001604052806040518060e0016040528060bc8152602001620083c460bc913981526020016040518060400160405280600c81526020016b5370616e697368204665737360a01b8152508152508152602001604051806040016040528060405180610120016040528060fa8152602001620091b560fa913981526020016040518060400160405280600c81526020016b46697665205374726970657360a01b815250815250815260200160405180604001604052806040518060a0016040528060748152602001620091416074913981526020016040518060400160405280600881526020016748696e6f6d61727560c01b815250815250815260200160405180604001604052806040518060a00160405280607c8152602001620096a6607c913981526020016040518060400160405280601081526020016f2b32b93a34b1b0b6102134b1b7b637b960811b81525081525081526020016040518060400160405280604051806101800160405280610142815260200162008480610142913981526020016040518060400160405280600781526020016653616c7469726560c81b815250815250815260200160405180604001604052806040518060a00160405280607d81526020016200a776607d91398152602001604051806040016040528060128152602001712437b934bd37b73a30b6102134b1b7b637b960711b815250815250815260200160405180604001604052806040518060a00160405280607c815260200162008348607c913981526020016040518060400160405280601a81526020017f566572746963616c204d6973706c61636564204269636f6c6f72000000000000815250815250815260200160405180604001604052806040518060e0016040528060bc8152602001620085c260bc9139815260200160405180604001604052806007815260200166426f726475726560c81b8152508152508152602001604051806040016040528060405180610100016040528060de8152602001620087ff60de913981526020016040518060400160405280600d81526020016c125b9d995c9d19590814185b1b609a1b81525081525081526020016040518060400160405280604051806103c0016040528061038f815260200162008ab461038f913981526020016040518060400160405280601381526020017f5477656e74792d666f7572207371756172656400000000000000000000000000815250815250815260200160405180604001604052806040518060c0016040528060918152602001620092af6091913981526020016040518060400160405280601081526020016f2234b0b3b7b730b6102134b1b7b637b960811b8152508152508152602001604051806040016040528060405180610100016040528060d281526020016200872d60d29139815260200160405180604001604052806012815260200171121bdc9a5e9bdb9d185b08151c9a58985b9960721b815250815250815260200160405180604001604052806040518060c0016040528060958152602001620097226095913981526020016040518060400160405280601881526020017f446961676f6e616c204269636f6c6f7220496e76657273650000000000000000815250815250815260200160405180604001604052806040518060e0016040528060bd8152602001620089f760bd913981526020016040518060400160405280600d81526020016c28bab0b23934b9b2b1ba34b7b760991b8152508152508152602001604051806040016040528060405180610140016040528061010e81526020016200943e61010e913981526020016040518060400160405280601981526020017f446961676f6e616c20547269636f6c6f7220496e7665727365000000000000008152508152508152602001604051806040016040528060405180610120016040528060e6815260200162008e4360e6913981526020016040518060400160405280601081526020016f2934b9b4b7339029b83634ba1029bab760811b8152508152508152602001604051806040016040528060405180610180016040528061015a81526020016200954c61015a913981526020016040518060400160405280600b81526020016a2637b732b63c9029ba30b960a91b8152508152508152602001604051806040016040528060405180610180016040528061015681526020016200a7f3610156913981526020016040518060400160405280601681526020017f446961676f6e616c204269636f6c6f722052696768740000000000000000000081525081525081526020016040518060400160405280604051806101a0016040528061017c815260200162008fc561017c913981526020016040518060400160405280601e81526020017f486f72697a6f6e74616c204269636f6c6f722077697468206120737461720000815250815250815260200160405180604001604052806040518061028001604052806102478152602001620097b7610247913981526020016040518060400160405280600b81526020016a2137b73734b29029ba30b960a91b8152508152508152602001604051806040016040528060405180610da00160405280610d788152602001620099fe610d78913981526020016040518060400160405280600b81526020016a2537b6363c902937b3b2b960a91b8152508152508152506066906019620040039291906200432a565b506040805161012081018252600160c08201818152600260e084018190526003610100850181905291845284516060818101875284825260208281018590528288018490528087019290925286518082018852838152808301869052808801859052868801528651808201885283815280830185905280880186905281870152865180820188528481528083018690528088018490526080870152865190810187529283528201529283015260a0810191909152620040c790609890600662004378565b50348015620040d557600080fd5b50604080518082018252600d81526c54696e79204b696e67646f6d7360981b602080830191825283518085019094526003845262544e5960e81b9084015281519192916200412691600091620043c6565b5080516200413c906001906020840190620043c6565b50506001600a5550620041586200415262004175565b62004179565b6200416f600d620041cb60201b62000af91760201c565b620046a2565b3390565b600b80546001600160a01b038381166001600160a01b0319831681179093556040519116919082907f8be0079c531659141344cd1fd0a4f28419497f9722a3daafe3b4186f6b6457e090600090a35050565b80546001019055565b82805482825590600052602060002090810192821562004226579160200282015b8281111562004226578251805162004215918491602090910190620043c6565b5091602001919060010190620041f5565b506200423492915062004451565b5090565b82805482825590600052602060002090810192821562004226579160200282015b8281111562004226578251805162004279918491602090910190620043c6565b509160200191906001019062004259565b82805482825590600052602060002090810192821562004226579160200282015b82811115620042265782518051620042cb918491602090910190620043c6565b5091602001919060010190620042ab565b6054830191839082156200431c579160200282015b828111156200431c5782516200430b908390600462004472565b5091602001919060040190620042f1565b5062004234929150620044b7565b6032830191839082156200436a579160200282015b828111156200436a578251620043599083906002620044d8565b50916020019190600201906200433f565b50620042349291506200451d565b601283019183908215620043b8579160200282015b82811115620043b8578251620043a790839060036200453e565b50916020019190600301906200438d565b506200423492915062004574565b828054620043d4906200465b565b90600052602060002090601f016020900481019282620043f8576000855562004443565b82601f106200441357805160ff191683800117855562004443565b8280016001018555821562004443579182015b828111156200444357825182559160200191906001019062004426565b506200423492915062004595565b8082111562004234576000620044688282620045ac565b5060010162004451565b826004810192821562004226579160200282015b82811115620042265782518051620044a6918491602090910190620043c6565b509160200191906001019062004486565b8082111562004234576000620044ce8282620045f1565b50600401620044b7565b826002810192821562004226579160200282015b828111156200422657825180516200450c918491602090910190620043c6565b5091602001919060010190620044ec565b808211156200423457600062004534828262004637565b506002016200451d565b826003810192821562004443579160200282015b8281111562004443578251829060ff1690559160200191906001019062004552565b80821115620042345760006200458b828262004646565b5060030162004574565b5b8082111562004234576000815560010162004596565b508054620045ba906200465b565b6000825580601f10620045ce5750620045ee565b601f016020900490600052602060002090810190620045ee919062004595565b50565b506000620046008282620045ac565b506001016000620046128282620045ac565b506001016000620046248282620045ac565b5062004635906001016000620045ac565b565b506000620046248282620045ac565b50600081556001016000815560010160009055565b6002810460018216806200467057607f821691505b602082108114156200468657620046866200468c565b50919050565b634e487b7160e01b600052602260045260246000fd5b613c9680620046b26000396000f3fe6080604052600436106101405760003560e01c806370a08231116100b6578063a22cb4651161006f578063a22cb4651461033d578063b88d4fde1461035d578063c87b56dd1461037d578063e985e9c51461039d578063eb8d2444146103bd578063f2fde38b146103d257610140565b806370a08231146102b6578063715018a6146102d6578063853828b6146102eb5780638da5cb5b146102f357806391b7f5ed1461030857806395d89b411461032857610140565b806323b872dd1161010857806323b872dd1461020e5780632f745c591461022e57806342842e0e1461024e5780634e71d92d1461026e5780634f6ccce7146102765780636352211e1461029657610140565b806301ffc9a71461014557806306fdde031461017b578063081812fc1461019d578063095ea7b3146101ca57806318160ddd146101ec575b600080fd5b34801561015157600080fd5b5061016561016036600461269b565b6103f2565b6040516101729190613194565b60405180910390f35b34801561018757600080fd5b5061019061041f565b60405161017291906131a2565b3480156101a957600080fd5b506101bd6101b83660046126d7565b6104b1565b6040516101729190613142565b3480156101d657600080fd5b506101ea6101e536600461266b565b6104fd565b005b3480156101f857600080fd5b50610201610595565b60405161017291906132f3565b34801561021a57600080fd5b506101ea610229366004612575565b61059b565b34801561023a57600080fd5b5061020161024936600461266b565b6105d3565b34801561025a57600080fd5b506101ea610269366004612575565b610628565b6101ea610643565b34801561028257600080fd5b506102016102913660046126d7565b6106d6565b3480156102a257600080fd5b506101bd6102b13660046126d7565b610731565b3480156102c257600080fd5b506102016102d136600461251d565b610766565b3480156102e257600080fd5b506101ea6107aa565b6101ea6107f5565b3480156102ff57600080fd5b506101bd610858565b34801561031457600080fd5b506101ea6103233660046126d7565b610867565b34801561033457600080fd5b506101906108ab565b34801561034957600080fd5b506101ea61035836600461263b565b6108ba565b34801561036957600080fd5b506101ea6103783660046125c2565b610988565b34801561038957600080fd5b506101906103983660046126d7565b6109c7565b3480156103a957600080fd5b506101656103b836600461253b565b610a54565b3480156103c957600080fd5b50610165610a82565b3480156103de57600080fd5b506101ea6103ed36600461251d565b610a8b565b60006001600160e01b0319821663780e9d6360e01b1480610417575061041782610b02565b90505b919050565b60606000805461042e906134bf565b80601f016020809104026020016040519081016040528092919081815260200182805461045a906134bf565b80156104a75780601f1061047c576101008083540402835291602001916104a7565b820191906000526020600020905b81548152906001019060200180831161048a57829003601f168201915b5050505050905090565b60006104bc82610b42565b6104e15760405162461bcd60e51b81526004016104d890613293565b60405180910390fd5b506000908152600460205260409020546001600160a01b031690565b600061050882610731565b9050806001600160a01b0316836001600160a01b0316141561053c5760405162461bcd60e51b81526004016104d8906132c3565b806001600160a01b031661054e610b5f565b6001600160a01b0316148061056a575061056a816103b8610b5f565b6105865760405162461bcd60e51b81526004016104d890613253565b6105908383610b63565b505050565b60085490565b6105ac6105a6610b5f565b82610bd1565b6105c85760405162461bcd60e51b81526004016104d8906132d3565b610590838383610c56565b60006105de83610766565b82106105fc5760405162461bcd60e51b81526004016104d8906131b3565b506001600160a01b03821660009081526006602090815260408083208484529091529020545b92915050565b61059083838360405180602001604052806000815250610988565b600061064f600d610d83565b600e5490915060ff166106745760405162461bcd60e51b81526004016104d890613223565b34600c5411156106965760405162461bcd60e51b81526004016104d890613233565b6110008111156106b85760405162461bcd60e51b81526004016104d8906131f3565b6106c96106c3610b5f565b82610d87565b6106d3600d610af9565b50565b60006106e0610595565b82106106fe5760405162461bcd60e51b81526004016104d8906132e3565b6008828154811061071f57634e487b7160e01b600052603260045260246000fd5b90600052602060002001549050919050565b6000818152600260205260408120546001600160a01b0316806104175760405162461bcd60e51b81526004016104d890613273565b60006001600160a01b03821661078e5760405162461bcd60e51b81526004016104d890613263565b506001600160a01b031660009081526003602052604090205490565b6107b2610b5f565b6001600160a01b03166107c3610858565b6001600160a01b0316146107e95760405162461bcd60e51b81526004016104d8906132a3565b6107f36000610da5565b565b6107fd610b5f565b6001600160a01b031661080e610858565b6001600160a01b0316146108345760405162461bcd60e51b81526004016104d8906132a3565b60405133904780156108fc02916000818181858888f193505050506107f357600080fd5b600b546001600160a01b031690565b61086f610b5f565b6001600160a01b0316610880610858565b6001600160a01b0316146108a65760405162461bcd60e51b81526004016104d8906132a3565b600c55565b60606001805461042e906134bf565b6108c2610b5f565b6001600160a01b0316826001600160a01b031614156108f35760405162461bcd60e51b81526004016104d890613213565b8060056000610900610b5f565b6001600160a01b03908116825260208083019390935260409182016000908120918716808252919093529120805460ff191692151592909217909155610944610b5f565b6001600160a01b03167f17307eab39ab6107e8899845ad3d59bd9653f200f220920489ca2b5937696c318360405161097c9190613194565b60405180910390a35050565b610999610993610b5f565b83610bd1565b6109b55760405162461bcd60e51b81526004016104d8906132d3565b6109c184848484610df7565b50505050565b606060006109d483610e2a565b90506000610a296109e485610e9f565b6109fe6109f9856109f487610fba565b611575565b611644565b8460400151604051602001610a15939291906130c5565b604051602081830303815290604052611644565b905080604051602001610a3c919061312b565b60408051808303601f19018152919052949350505050565b6001600160a01b03918216600090815260056020908152604080832093909416825291909152205460ff1690565b600e5460ff1681565b610a93610b5f565b6001600160a01b0316610aa4610858565b6001600160a01b031614610aca5760405162461bcd60e51b81526004016104d8906132a3565b6001600160a01b038116610af05760405162461bcd60e51b81526004016104d8906131d3565b6106d381610da5565b80546001019055565b60006001600160e01b031982166380ac58cd60e01b1480610b3357506001600160e01b03198216635b5e139f60e01b145b806104175750610417826117b8565b6000908152600260205260409020546001600160a01b0316151590565b3390565b600081815260046020526040902080546001600160a01b0319166001600160a01b0384169081179091558190610b9882610731565b6001600160a01b03167f8c5be1e5ebec7d5bd14f71427d1e84f3dd0314c0f7b2291e5b200ac8c7c3b92560405160405180910390a45050565b6000610bdc82610b42565b610bf85760405162461bcd60e51b81526004016104d890613243565b6000610c0383610731565b9050806001600160a01b0316846001600160a01b03161480610c3e5750836001600160a01b0316610c33846104b1565b6001600160a01b0316145b80610c4e5750610c4e8185610a54565b949350505050565b826001600160a01b0316610c6982610731565b6001600160a01b031614610c8f5760405162461bcd60e51b81526004016104d8906132b3565b6001600160a01b038216610cb55760405162461bcd60e51b81526004016104d890613203565b610cc08383836117d1565b610ccb600082610b63565b6001600160a01b0383166000908152600360205260408120805460019290610cf49084906133f0565b90915550506001600160a01b0382166000908152600360205260408120805460019290610d22908490613363565b909155505060008181526002602052604080822080546001600160a01b0319166001600160a01b0386811691821790925591518493918716917fddf252ad1be2c89b69c2b068fc378daa952ba7f163c4a11628f55a4df523b3ef91a4505050565b5490565b610da182826040518060200160405280600081525061185a565b5050565b600b80546001600160a01b038381166001600160a01b0319831681179093556040519116919082907f8be0079c531659141344cd1fd0a4f28419497f9722a3daafe3b4186f6b6457e090600090a35050565b610e02848484610c56565b610e0e8484848461188d565b6109c15760405162461bcd60e51b81526004016104d8906131c3565b610e3261240f565b610e3a61240f565b610e43836119a8565b6060820152610e5183611a0a565b6080820152610e5f83611a50565b60a08201819052610e6f90611aa7565b602082015260a0810151610e8290611b87565b604082015260a0810151610e97908490611bb7565b815292915050565b606081610ec457506040805180820190915260018152600360fc1b602082015261041a565b8160005b8115610eee5780610ed8816134ec565b9150610ee79050600a83613391565b9150610ec8565b60008167ffffffffffffffff811115610f1757634e487b7160e01b600052604160045260246000fd5b6040519080825280601f01601f191660200182016040528015610f41576020820181803683370190505b5090505b8415610c4e57610f566001836133f0565b9150610f63600a86613512565b610f6e906030613363565b60f81b818381518110610f9157634e487b7160e01b600052603260045260246000fd5b60200101906001600160f81b031916908160001a905350610fb3600a86613391565b9450610f45565b6060610fc4612445565b60405180608001604052806056815260200161377460569139815260608301516012906015811061100557634e487b7160e01b600052603260045260246000fd5b600402016003018054611017906134bf565b80601f0160208091040260200160405190810160405280929190818152602001828054611043906134bf565b80156110905780601f1061106557610100808354040283529160200191611090565b820191906000526020600020905b81548152906001019060200180831161107357829003601f168201915b5050505050816001600981106110b657634e487b7160e01b600052603260045260246000fd5b60200201819052506040518060a00160405280606e81526020016136c6606e9139604082015260608301516012906015811061110257634e487b7160e01b600052603260045260246000fd5b600402016001609885608001516006811061112d57634e487b7160e01b600052603260045260246000fd5b600302015461113c91906133f0565b6004811061115a57634e487b7160e01b600052603260045260246000fd5b018054611166906134bf565b80601f0160208091040260200160405190810160405280929190818152602001828054611192906134bf565b80156111df5780601f106111b4576101008083540402835291602001916111df565b820191906000526020600020905b8154815290600101906020018083116111c257829003601f168201915b50505050508160036009811061120557634e487b7160e01b600052603260045260246000fd5b60200201819052506040518060400160405280600e81526020016d1dbe9731b63996993db334b6361d60911b8152508160046009811061125557634e487b7160e01b600052603260045260246000fd5b602002015260608301516012906015811061128057634e487b7160e01b600052603260045260246000fd5b60040201600160988560800151600681106112ab57634e487b7160e01b600052603260045260246000fd5b60030201600101546112bd91906133f0565b600481106112db57634e487b7160e01b600052603260045260246000fd5b0180546112e7906134bf565b80601f0160208091040260200160405190810160405280929190818152602001828054611313906134bf565b80156113605780601f1061133557610100808354040283529160200191611360565b820191906000526020600020905b81548152906001019060200180831161134357829003601f168201915b50505050508160056009811061138657634e487b7160e01b600052603260045260246000fd5b60200201819052506040518060400160405280600e81526020016d1dbe9731b6399699bdb334b6361d60911b815250816006600981106113d657634e487b7160e01b600052603260045260246000fd5b602002015260608301516012906015811061140157634e487b7160e01b600052603260045260246000fd5b600402016001609885608001516006811061142c57634e487b7160e01b600052603260045260246000fd5b600302016002015461143e91906133f0565b6004811061145c57634e487b7160e01b600052603260045260246000fd5b018054611468906134bf565b80601f0160208091040260200160405190810160405280929190818152602001828054611494906134bf565b80156114e15780601f106114b6576101008083540402835291602001916114e1565b820191906000526020600020905b8154815290600101906020018083116114c457829003601f168201915b50505050508160076009811061150757634e487b7160e01b600052603260045260246000fd5b602002018190525060405180610120016040528060f881526020016135ce60f89139610100820181905281516020808401516040808601516060870151608088015160a089015160c08a015160e08b0151955160009a610a3c9a999697959694959394929392909101612fc2565b606061157f61246d565b828152604080516103c081019091526103928082526137ca602083013960208083019190915284015181600260200201819052506040518061014001604052806101058152602001613b5c61010591396060820190815284516080830190815260408051808201825260068152651e17b9bb339f60d11b60208083019190915260a086018290528551818701518488015196519551945160009761162b97939692959094909101612f6e565b60408051808303601f1901815291905295945050505050565b80516060908061166457505060408051602081019091526000815261041a565b60006003611673836002613363565b61167d9190613391565b6116889060046133bb565b90506000611697826020613363565b67ffffffffffffffff8111156116bd57634e487b7160e01b600052604160045260246000fd5b6040519080825280601f01601f1916602001820160405280156116e7576020820181803683370190505b5090506000604051806060016040528060408152602001613734604091399050600181016020830160005b86811015611773576003818a01810151603f601282901c8116860151600c83901c8216870151600684901c831688015192909316870151600891821b60ff94851601821b92841692909201901b91160160e01b835260049092019101611712565b50600386066001811461178d576002811461179e576117aa565b613d3d60f01b6001198301526117aa565b603d60f81b6000198301525b505050918152949350505050565b6001600160e01b031981166301ffc9a760e01b14919050565b6117dc838383610590565b6001600160a01b0383166117f8576117f3816120a0565b61181b565b816001600160a01b0316836001600160a01b03161461181b5761181b83826120e4565b6001600160a01b0382166118375761183281612181565b610590565b826001600160a01b0316826001600160a01b03161461059057610590828261225a565b611864838361229e565b611871600084848461188d565b6105905760405162461bcd60e51b81526004016104d8906131c3565b60006118a1846001600160a01b031661237d565b1561199d57836001600160a01b031663150b7a026118bd610b5f565b8786866040518563ffffffff1660e01b81526004016118df9493929190613150565b602060405180830381600087803b1580156118f957600080fd5b505af1925050508015611929575060408051601f3d908101601f19168201909252611926918101906126b9565b60015b611983573d808015611957576040519150601f19603f3d011682016040523d82523d6000602084013e61195c565b606091505b50805161197b5760405162461bcd60e51b81526004016104d8906131c3565b805181602001fd5b6001600160e01b031916630a85bd0160e11b149050610c4e565b506001949350505050565b60008061041a6119d584604051806040016040528060058152602001645448454d4560d81b815250612383565b6119df9190613512565b905060006103e88210156119ff576119f8603283613391565b9050611a03565b5060145b9392505050565b6000806103e8611a37846040518060400160405280600581526020016427a92222a960d91b815250612383565b611a419190613512565b90506000610c4e60a683613391565b6000806103e8611a7c8460405180604001604052806004815260200163464c414760e01b815250612383565b611a869190613512565b905060006103d4821115611a9c57506018611a03565b610c4e602883613391565b6060600060668360198110611acc57634e487b7160e01b600052603260045260246000fd5b6002020160005b018054611adf906134bf565b80601f0160208091040260200160405190810160405280929190818152602001828054611b0b906134bf565b8015611b585780601f10611b2d57610100808354040283529160200191611b58565b820191906000526020600020905b815481529060010190602001808311611b3b57829003601f168201915b5050505050905080604051602001611b709190612f4a565b604051602081830303815290604052915050919050565b6060600060668360198110611bac57634e487b7160e01b600052603260045260246000fd5b600202016001611ad3565b60606000611be28460405180604001604052806005815260200164504c41434560d81b815250612383565b60108054919250600091611bf7600785613391565b611c019190613512565b81548110611c1f57634e487b7160e01b600052603260045260246000fd5b906000526020600020018054611c34906134bf565b80601f0160208091040260200160405190810160405280929190818152602001828054611c60906134bf565b8015611cad5780601f10611c8257610100808354040283529160200191611cad565b820191906000526020600020905b815481529060010190602001808311611c9057829003601f168201915b505050505090506000600f808054905060c885611cca9190613391565b611cd49190613512565b81548110611cf257634e487b7160e01b600052603260045260246000fd5b906000526020600020018054611d07906134bf565b80601f0160208091040260200160405190810160405280929190818152602001828054611d33906134bf565b8015611d805780601f10611d5557610100808354040283529160200191611d80565b820191906000526020600020905b815481529060010190602001808311611d6357829003601f168201915b5050505050905060608560181415611dba575060408051808201909152600b81526a070697261746520736869760ac1b6020820152611e87565b60118054611dc9600b87613391565b611dd39190613512565b81548110611df157634e487b7160e01b600052603260045260246000fd5b906000526020600020018054611e06906134bf565b80601f0160208091040260200160405190810160405280929190818152602001828054611e32906134bf565b8015611e7f5780601f10611e5457610100808354040283529160200191611e7f565b820191906000526020600020905b815481529060010190602001808311611e6257829003601f168201915b505050505090505b6000838383604051602001611e9e9392919061308b565b60408051601f198184030181529190529050806101c160008060145b611ec48184613363565b915084518210611ed75784519150611f30565b848281518110611ef757634e487b7160e01b600052603260045260246000fd5b6020910101516001600160f81b031916600160fd1b14801590611f1957508282115b15611f305781611f288161349d565b925050611ed7565b6000611f3c84846133f0565b67ffffffffffffffff811115611f6257634e487b7160e01b600052604160045260246000fd5b6040519080825280601f01601f191660200182016040528015611f8c576020820181803683370190505b509050835b8381101561202257611fd0878281518110611fbc57634e487b7160e01b600052603260045260246000fd5b01602001516001600160f81b0319166123bf565b82611fdb87846133f0565b81518110611ff957634e487b7160e01b600052603260045260246000fd5b60200101906001600160f81b031916908160001a9053508061201a816134ec565b915050611f91565b508661202d86610e9f565b826040516020016120409392919061303d565b60405160208183030381529060405296506101c2851115612061575061208f565b61206c602686613363565b94508551831061207c575061208f565b612087836001613363565b935050611eba565b50939b9a5050505050505050505050565b600880546000838152600960205260408120829055600182018355919091527ff3f7a9fe364faab93b216da50a3214154f22a0a2b415b23a84c8169e8b636ee30155565b600060016120f184610766565b6120fb91906133f0565b60008381526007602052604090205490915080821461214e576001600160a01b03841660009081526006602090815260408083208584528252808320548484528184208190558352600790915290208190555b5060009182526007602090815260408084208490556001600160a01b039094168352600681528383209183525290812055565b600854600090612193906001906133f0565b600083815260096020526040812054600880549394509092849081106121c957634e487b7160e01b600052603260045260246000fd5b9060005260206000200154905080600883815481106121f857634e487b7160e01b600052603260045260246000fd5b600091825260208083209091019290925582815260099091526040808220849055858252812055600880548061223e57634e487b7160e01b600052603160045260246000fd5b6001900381819060005260206000200160009055905550505050565b600061226583610766565b6001600160a01b039093166000908152600660209081526040808320868452825280832085905593825260079052919091209190915550565b6001600160a01b0382166122c45760405162461bcd60e51b81526004016104d890613283565b6122cd81610b42565b156122ea5760405162461bcd60e51b81526004016104d8906131e3565b6122f6600083836117d1565b6001600160a01b038216600090815260036020526040812080546001929061231f908490613363565b909155505060008181526002602052604080822080546001600160a01b0319166001600160a01b03861690811790915590518392907fddf252ad1be2c89b69c2b068fc378daa952ba7f163c4a11628f55a4df523b3ef908290a45050565b3b151590565b60008161238f84610e9f565b6040516020016123a0929190612f56565b60408051601f1981840301815291905280516020909101209392505050565b6000606160f81b6001600160f81b03198316108015906123ed5750603d60f91b6001600160f81b0319831611155b1561240b57612401602060f884901c61341d565b60f81b905061041a565b5090565b6040518060c001604052806060815260200160608152602001606081526020016000815260200160008152602001600081525090565b6040518061012001604052806009905b60608152602001906001900390816124555790505090565b6040805160c0810190915260608152600560208201612455565b600061249a6124958461332b565b613301565b9050828152602081018484840111156124b257600080fd5b6124bd848285613465565b509392505050565b80356106228161359e565b8035610622816135b2565b8035610622816135bb565b8051610622816135bb565b600082601f83011261250257600080fd5b8135610c4e848260208601612487565b8035610622816135c4565b60006020828403121561252f57600080fd5b6000610c4e84846124c5565b6000806040838503121561254e57600080fd5b600061255a85856124c5565b925050602061256b858286016124c5565b9150509250929050565b60008060006060848603121561258a57600080fd5b600061259686866124c5565b93505060206125a7868287016124c5565b92505060406125b886828701612512565b9150509250925092565b600080600080608085870312156125d857600080fd5b60006125e487876124c5565b94505060206125f5878288016124c5565b935050604061260687828801612512565b925050606085013567ffffffffffffffff81111561262357600080fd5b61262f878288016124f1565b91505092959194509250565b6000806040838503121561264e57600080fd5b600061265a85856124c5565b925050602061256b858286016124d0565b6000806040838503121561267e57600080fd5b600061268a85856124c5565b925050602061256b85828601612512565b6000602082840312156126ad57600080fd5b6000610c4e84846124db565b6000602082840312156126cb57600080fd5b6000610c4e84846124e6565b6000602082840312156126e957600080fd5b6000610c4e8484612512565b6126fe81613433565b82525050565b6126fe8161343e565b600061271882613356565b612722818561335a565b9350612732818560208601613471565b61273b81613594565b9093019392505050565b600061275082613356565b61275a818561041a565b935061276a818560208601613471565b9290920192915050565b6000612781602b8361335a565b7f455243373231456e756d657261626c653a206f776e657220696e646578206f7581526a74206f6620626f756e647360a81b602082015260400192915050565b60006127ce60328361335a565b7f4552433732313a207472616e7366657220746f206e6f6e20455243373231526581527131b2b4bb32b91034b6b83632b6b2b73a32b960711b602082015260400192915050565b600061282260268361335a565b7f4f776e61626c653a206e6577206f776e657220697320746865207a65726f206181526564647265737360d01b602082015260400192915050565b600061286a601c8361335a565b7f4552433732313a20746f6b656e20616c7265616479206d696e74656400000000815260200192915050565b60006128a360138361335a565b72151bdad95b881b1a5b5a5d081c995858da1959606a1b815260200192915050565b60006128d260248361335a565b7f4552433732313a207472616e7366657220746f20746865207a65726f206164648152637265737360e01b602082015260400192915050565b600061291860198361335a565b7f4552433732313a20617070726f766520746f2063616c6c657200000000000000815260200192915050565b600061295160128361335a565b7153616c65206973206e6f742061637469766560701b815260200192915050565b600061297f601f8361335a565b7f45746865722076616c75652073656e74206973206e6f7420636f727265637400815260200192915050565b60006129b8602c8361335a565b7f4552433732313a206f70657261746f7220717565727920666f72206e6f6e657881526b34b9ba32b73a103a37b5b2b760a11b602082015260400192915050565b6000612a0660348361041a565b7f3c7465787420746578742d616e63686f723d226d6964646c652220636c6173738152731e91383630b1b291103c1e9119981991103c9e9160611b602082015260340192915050565b6000612a5c60438361041a565b7f222c20226465736372697074696f6e223a202246756c6c79206f6e2d6368616981527f6e2c2072616e646f6d6c792067656e6572617465642074696e7920666c6167736020820152620b888b60ea1b604082015260430192915050565b6000612ac760018361041a565b600160fd1b815260010192915050565b6000612ae460388361335a565b7f4552433732313a20617070726f76652063616c6c6572206973206e6f74206f7781527f6e6572206e6f7220617070726f76656420666f7220616c6c0000000000000000602082015260400192915050565b6000612b4360018361041a565b601160f91b815260010192915050565b6000612b60602a8361335a565b7f4552433732313a2062616c616e636520717565727920666f7220746865207a65815269726f206164647265737360b01b602082015260400192915050565b6000612bac60298361335a565b7f4552433732313a206f776e657220717565727920666f72206e6f6e657869737481526832b73a103a37b5b2b760b91b602082015260400192915050565b6000612bf760188361041a565b7f7b226e616d65223a202254696e79204b696e67646f6d20230000000000000000815260180192915050565b6000612c3060248361041a565b7f22696d616765223a2022646174613a696d6167652f7376672b786d6c3b626173815263194d8d0b60e21b602082015260240192915050565b6000612c7660078361041a565b661e17ba32bc3a1f60c91b815260070192915050565b6000612c9960208361335a565b7f4552433732313a206d696e7420746f20746865207a65726f2061646472657373815260200192915050565b6000612cd2602c8361335a565b7f4552433732313a20617070726f76656420717565727920666f72206e6f6e657881526b34b9ba32b73a103a37b5b2b760a11b602082015260400192915050565b6000612d2060208361335a565b7f4f776e61626c653a2063616c6c6572206973206e6f7420746865206f776e6572815260200192915050565b6000612d59602d8361041a565b7f2c2261747472696275746573223a5b7b2274726169745f74797065223a22466c81526c30b39116113b30b63ab2911d1160991b6020820152602d0192915050565b6000612da860298361335a565b7f4552433732313a207472616e73666572206f6620746f6b656e2074686174206981526839903737ba1037bbb760b91b602082015260400192915050565b6000612df360218361335a565b7f4552433732313a20617070726f76616c20746f2063757272656e74206f776e658152603960f91b602082015260400192915050565b6000612e36601d8361041a565b7f646174613a6170706c69636174696f6e2f6a736f6e3b6261736536342c0000008152601d0192915050565b6000612e6f60318361335a565b7f4552433732313a207472616e736665722063616c6c6572206973206e6f74206f8152701ddb995c881b9bdc88185c1c1c9bdd9959607a1b602082015260400192915050565b6000612ec2602c8361335a565b7f455243373231456e756d657261626c653a20676c6f62616c20696e646578206f81526b7574206f6620626f756e647360a01b602082015260400192915050565b6000612f1060028361041a565b61111f60f11b815260020192915050565b6000612f2e60048361041a565b63227d5d7d60e01b815260040192915050565b6126fe8161345c565b6000611a038284612745565b6000612f628285612745565b9150610c4e8284612745565b6000612f7a8289612745565b9150612f868288612745565b9150612f928287612745565b9150612f9e8286612745565b9150612faa8285612745565b9150612fb68284612745565b98975050505050505050565b6000612fce828c612745565b9150612fda828b612745565b9150612fe6828a612745565b9150612ff28289612745565b9150612ffe8288612745565b915061300a8287612745565b91506130168286612745565b91506130228285612745565b915061302e8284612745565b9b9a5050505050505050505050565b60006130498286612745565b9150613054826129f9565b91506130608285612745565b915061306b82612f03565b91506130778284612745565b915061308282612c69565b95945050505050565b60006130978286612745565b91506130a282612aba565b91506130ae8285612745565b91506130b982612aba565b91506130828284612745565b60006130d082612bea565b91506130dc8286612745565b91506130e782612a4f565b91506130f282612c23565b91506130fe8285612745565b915061310982612b36565b915061311482612d4c565b91506131208284612745565b915061308282612f21565b600061313682612e29565b9150611a038284612745565b6020810161062282846126f5565b6080810161315e82876126f5565b61316b60208301866126f5565b6131786040830185612f41565b818103606083015261318a818461270d565b9695505050505050565b602081016106228284612704565b60208082528101611a03818461270d565b6020808252810161041781612774565b60208082528101610417816127c1565b6020808252810161041781612815565b602080825281016104178161285d565b6020808252810161041781612896565b60208082528101610417816128c5565b602080825281016104178161290b565b6020808252810161041781612944565b6020808252810161041781612972565b60208082528101610417816129ab565b6020808252810161041781612ad7565b6020808252810161041781612b53565b6020808252810161041781612b9f565b6020808252810161041781612c8c565b6020808252810161041781612cc5565b6020808252810161041781612d13565b6020808252810161041781612d9b565b6020808252810161041781612de6565b6020808252810161041781612e62565b6020808252810161041781612eb5565b602081016106228284612f41565b60405181810167ffffffffffffffff811182821017156133235761332361357e565b604052919050565b600067ffffffffffffffff8211156133455761334561357e565b506020601f91909101601f19160190565b5190565b90815260200190565b600061336e8261345c565b91506133798361345c565b9250821982111561338c5761338c61353c565b500190565b600061339c8261345c565b91506133a78361345c565b9250826133b6576133b6613552565b500490565b60006133c68261345c565b91506133d18361345c565b92508160001904831182151516156133eb576133eb61353c565b500290565b60006133fb8261345c565b91506134068361345c565b9250828210156134185761341861353c565b500390565b60006134288261345f565b91506134068361345f565b600061041782613450565b151590565b6001600160e01b03191690565b6001600160a01b031690565b90565b60ff1690565b82818337506000910152565b60005b8381101561348c578181015183820152602001613474565b838111156109c15750506000910152565b60006134a88261345c565b9150816134b7576134b761353c565b506000190190565b6002810460018216806134d357607f821691505b602082108114156134e6576134e6613568565b50919050565b60006134f78261345c565b915060001982141561350b5761350b61353c565b5060010190565b600061351d8261345c565b91506135288361345c565b92508261353757613537613552565b500690565b634e487b7160e01b600052601160045260246000fd5b634e487b7160e01b600052601260045260246000fd5b634e487b7160e01b600052602260045260246000fd5b634e487b7160e01b600052604160045260246000fd5b601f01601f191690565b6135a781613433565b81146106d357600080fd5b6135a78161343e565b6135a781613443565b6135a78161345c56fe3b7d2e636c732d357b66696c6c3a6e6f6e653b7374726f6b653a233536353635363b7374726f6b652d6d697465726c696d69743a31303b7374726f6b652d77696474683a3270783b7d202e636f6e746f75727b66696c6c3a6e6f6e653b7374726f6b653a233536353635363b7374726f6b652d6d697465726c696d69743a31303b7374726f6b652d77696474683a3270783b6865696768743a3237392c77696474683a3338322c20783a3131332c20793a38367d2e706c6163657b666f6e742d73697a653a333670783b666f6e742d66616d696c793a73657269663b66696c6c3a233536353635367d3c2f7374796c653e3c2f646566733e223e203c646566733e203c7374796c653e202e736861646f777b7374726f6b652d6c696e656361703a726f756e643b7374726f6b652d6c696e656a6f696e3a726f756e643b66696c6c3a233536353635363b7374726f6b653a233536353635367d202e636c732d317b66696c6c3a4142434445464748494a4b4c4d4e4f505152535455565758595a6162636465666768696a6b6c6d6e6f707172737475767778797a303132333435363738392b2f3c73766720786d6c6e733d22687474703a2f2f7777772e77332e6f72672f323030302f737667222076696577426f783d22302030203630392036303222207374796c653d226261636b67726f756e642d636f6c6f723a3c7061747465726e2069643d226261636b446f7473222077696474683d22363422206865696768743d22363422207061747465726e556e6974733d227573657253706163654f6e557365223e3c6c696e652066696c6c3d227472616e73706172656e7422207374726f6b653d222335363536353622207374726f6b652d77696474683d223222206f7061636974793d222e36222078313d2231342e3736222079313d2232342e3934222078323d2232302e35222079323d2231392e3522202f3e3c2f7061747465726e3e3c66696c7465722069643d226261636b223e3c666554757262756c656e636520747970653d226672616374616c4e6f6973652220626173654672657175656e63793d22302e3122206e756d4f6374617665733d22312220736565643d223432222f3e203c6665446973706c6163656d656e744d617020696e3d22536f75726365477261706869632220784368616e6e656c53656c6563746f723d224222207363616c653d22323030222f3e3c2f66696c7465723e3c672066696c7465723d2275726c28236261636b29223e3c7265637420783d222d3530252220793d222d353025222077696474683d223230302522206865696768743d2232303025222066696c6c3d2275726c28236261636b446f74732922202f3e3c2f673e3c66696c7465722069643d22646973706c6163656d656e7446696c746572223e3c666554757262756c656e63652069643d2274757262756c656e63654d61702220747970653d2274757262756c656e63652220626173654672657175656e63793d22302e303522206e756d4f6374617665733d22322220726573756c743d202274757262756c656e6365223e3c616e696d617465206174747269627574654e616d653d22626173654672657175656e6379222076616c7565733d22302e30313b302e3030313b302e303122206475723d2234732220726570656174436f756e743d22696e646566696e697465222f3e3c2f666554757262756c656e63653e3c6665446973706c6163656d656e744d617020696e323d2274757262756c656e63652220696e3d22536f757263654772617068696322207363616c653d22392220784368616e6e656c53656c6563746f723d22522220794368616e6e656c53656c6563746f723d224722202f3e3c2f66696c7465723e203c672069643d226c617965725f3222207374796c653d2266696c7465723a2075726c2823646973706c6163656d656e7446696c74657229223e3c2f673e203c7265637420636c6173733d22636f6e746f7572222020783d223131332e352220793d2238362e35222077696474683d2233383222206865696768743d2232373922207374796c653d2266696c7465723a2075726c2823646973706c6163656d656e7446696c74657229222f3e3c706f6c79676f6e20636c6173733d22736861646f772220706f696e74733d223131322e35203336352e35203131322e352038372e39322031303820393720313038203337302034393020333730203439342e3637203336352e35203131322e35203336352e3522207374796c653d2266696c7465723a2075726c2823646973706c6163656d656e7446696c74657229222f3ea264697066735822122082c5b60fdc253806ce65ec12718e140a0d40cf91f1d2a296b816b61e02e1773164736f6c634300080000333c7265637420636c6173733d22636c732d3122206865696768743d22323739222077696474683d223338312220783d223131342220793d223836222f3e203c7265637420636c6173733d22636c732d322220206865696768743d22323739222077696474683d223132382220783d223137372220793d223836222f3e3c7265637420636c6173733d22636c732d3122206865696768743d22363222202077696474683d223338312220783d223131342220793d223836222f3e203c7265637420636c6173733d22636c732d322220206865696768743d22313536222077696474683d223338312220783d223131342220793d22313438222f3e203c7265637420636c6173733d22636c732d312220206865696768743d223632222077696474683d223338312220783d223131342220793d22333034222f3e3c7265637420636c6173733d22636c732d3122206865696768743d22323739222077696474683d223338312220783d223131342220793d223836222f3e203c706f6c79676f6e20636c6173733d22636c732d32222020706f696e74733d223136352e37342038362e35203131332e38352038362e35203131332e3835203132352e31203235322e3737203232352e3834203131332e3835203332362e3538203131332e3835203336342e39203136352e3437203336342e39203330342e3739203236332e3536203434352e3139203336352e3338203439352e3435203336352e3338203439352e3435203332352e36203335382e3434203232362e3235203439352e3435203132362e3039203439352e34352038372e3539203434342e39322038372e3539203330342e3739203138382e3132203136352e37342038362e35222f3e3c7265637420636c6173733d22636c732d3122206865696768743d22323739222077696474683d223338312220783d223131342220793d223835222f3e203c7265637420636c6173733d22636c732d322220206865696768743d22323739222077696474683d223338322220783d223131332220793d223836222f3e203c7265637420636c6173733d22636c732d332220206865696768743d22313535222077696474683d223235362220783d223137362220793d22313438222f3e3c7265637420636c6173733d22636c732d3122206865696768743d22313430222077696474683d223338322220783d223131332220793d2232323622202f3e3c7265637420636c6173733d22636c732d322220206865696768743d22313430222077696474683d223338322220783d223131332220793d22383622202f3e3c636972636c6520636c6173733d22636c732d3322202063783d22333034222063793d223232362220723d223834222f3e3c7265637420636c6173733d22636c732d3122206865696768743d223933222077696474683d223338312e31332220783d223131332e36352220793d2238362e3235222f3e203c7265637420636c6173733d22636c732d322220206865696768743d223933222077696474683d223338312e31332220783d223131332e36352220793d223237322e3235222f3e203c7265637420636c6173733d22636c732d332220206865696768743d223933222077696474683d223338322220783d223131322e37372220793d223137392e3235222f3e3c7265637420636c6173733d22636c732d3122206865696768743d22323739222077696474683d223338322220783d223131322e37352220793d2238362e3632222f3e203c706f6c796c696e6520636c6173733d22636c732d32222020706f696e74733d223131332e3037203336352e3239203339312e3735203336352e3632203131322e3835203232362e3333222f3e203c706f6c796c696e6520636c6173733d22636c732d3222202020706f696e74733d223131332e30372038352e3936203339312e37352038352e3632203131322e3835203232362e3538222f3e3c7265637420636c6173733d22636c732d3122206865696768743d22323739222077696474683d223338312220783d223131332e37372220793d2238362e3133222f3e203c706f6c79676f6e20636c6173733d22636c732d32222020706f696e74733d223131322e3737203137382e3837203230382e3237203137382e3837203230382e32372038362e3133203330322e37372038362e3133203330322e3737203137382e3837203439342e3439203137382e3837203439342e3439203237322e3234203330322e3737203237322e3234203330332e3833203336352e3133203230382e3239203336352e3633203230382e3237203237322e3234203131322e3839203237322e3234203131322e3737203137382e3837222f3e3c7265637420636c6173733d22636c732d3122206865696768743d22323739222077696474683d223338312220783d223131342220793d223836222f3e203c7265637420636c6173733d22636c732d32222020206865696768743d22313339222077696474683d223139312220783d223131332220793d223836222f3e3c7265637420636c6173733d22636c732d32222020206865696768743d22313339222077696474683d223139312220783d223330342220793d22323236222f3e3c7265637420636c6173733d22636c732d3122206865696768743d22323830222077696474683d223338312220783d223131342220793d223835222f3e203c7265637420636c6173733d22636c732d32222020206865696768743d2236382e3633222077696474683d2236332220783d223131332e38332220793d2238362e3639222f3e3c7265637420636c6173733d22636c732d32222020206865696768743d2236382e3633222077696474683d2236332220783d223234302e38332220793d2238362e3639222f3e3c7265637420636c6173733d22636c732d32222020206865696768743d2236382e3633222077696474683d2236332220783d223336372e38332220793d2238362e3639222f3e3c7265637420636c6173733d22636c732d32222020206865696768743d2236382e3633222077696474683d2236332220783d223131332e38332220793d223232362e3139222f3e3c7265637420636c6173733d22636c732d32222020206865696768743d2236382e3633222077696474683d2236332220783d223234302e38332220793d223232362e3139222f3e3c7265637420636c6173733d22636c732d32222020206865696768743d2236382e3633222077696474683d2236332220783d223336372e38332220793d223232362e3139222f3e3c7265637420636c6173733d22636c732d32222020206865696768743d2236382e3633222077696474683d2236332220783d223137362e38332220793d223135362e3434222f3e3c7265637420636c6173733d22636c732d32222020206865696768743d2236382e3633222077696474683d2236332220783d223330332e38332220793d223135362e3434222f3e3c7265637420636c6173733d22636c732d32222020206865696768743d2236382e3633222077696474683d2236332220783d223433302e38332220793d223135362e3434222f3e3c7265637420636c6173733d22636c732d32222020206865696768743d2236382e3633222077696474683d2236332220783d223137362e38332220793d223239372e3037222f3e3c7265637420636c6173733d22636c732d32222020206865696768743d2236382e3633222077696474683d2236332220783d223330332e38332220793d223239372e3037222f3e3c7265637420636c6173733d22636c732d32222020206865696768743d2236382e3633222077696474683d2236332220783d223433302e38332220793d223239372e3037222f3e3c7265637420636c6173733d22636c732d312220206865696768743d22323739222077696474683d223139302220783d223330342220793d223837222f3e3c7265637420636c6173733d22636c732d322220206865696768743d22323739222077696474683d223139302220783d223131342220793d223836222f3e3c7061746820636c6173733d22636c732d31222020643d224d3330342c3331306138342c38342c302c302c312c302d313638222f3e3c7061746820636c6173733d22636c732d32222020643d224d3330342c3134326138342c38342c302c302c312c302c313638222f3e3c7265637420636c6173733d22636c732d3122206865696768743d22323739222077696474683d223338322220783d223131332e36352220793d2238362e3236222f3e203c706f6c79676f6e20636c6173733d22636c732d32222020706f696e74733d223131332e36352038362e3237203330342e3635203232352e3736203131332e3635203336352e3236203131332e36352038362e3237222f3e3c7265637420636c6173733d22636c732d31222020783d223131332220793d22323237222077696474683d2233383222206865696768743d22313430222f3e203c7265637420636c6173733d22636c732d32222020783d223131332220793d223837222077696474683d2233383222206865696768743d22313430222f3e203c7061746820636c6173733d22636c732d332220643d224d3330372e31372c3137312e31356c31352e35322c33312e34362c33342e37322c3561332c332c302c302c312c312e36372c352e31354c3333342c3233372e32396c352e39332c33342e353861332c332c302c302c312d342e33382c332e31386c2d33312e30352d31362e33322d33312c31362e333261332c332c302c302c312d342e33382d332e31384c3237352c3233372e32392c3234392e38342c3231322e3861332c332c302c302c312c312e36372d352e31356c33342e37322d352c31352e35322d33312e343641332c332c302c302c312c3330372e31372c3137312e31355a222f3e3c7265637420636c6173733d22636c732d3122206865696768743d22323739222077696474683d223338322220783d223131332220793d223837222f3e3c636972636c652020636c6173733d22636c732d32222063783d223330332e35222063793d223232342e352220723d2239352e35222f3e3c7265637420636c6173733d22636c732d3122206865696768743d22313535222077696474683d223338312220783d223131342220793d22313438222f3e203c7265637420636c6173733d22636c732d322220206865696768743d223632222077696474683d223338312220783d223131342220793d223836222f3e203c7265637420636c6173733d22636c732d322220206865696768743d223632222077696474683d223338312220783d223131342220793d22313935222f3e203c7265637420636c6173733d22636c732d322220206865696768743d223632222077696474683d223338312220783d223131342220793d22333033222f3e3c7265637420636c6173733d22636c732d3122206865696768743d22323738222077696474683d223338332220783d223131322220793d223837222f3e203c706f6c79676f6e20636c6173733d22636c732d3222202020706f696e74733d223131332e31203835203238392e3639203835203439342e3120333635203331382e3120333635203131332e31203835222f3e3c7265637420636c6173733d22636c732d3122206865696768743d22323739222077696474683d223132372220783d223131332220793d22383622202f3e3c7265637420636c6173733d22636c732d322220206865696768743d22323739222077696474683d223132382220783d223234302220793d22383622202f3e3c7265637420636c6173733d22636c732d332220206865696768743d22323739222077696474683d223132382220783d223336372220793d22383622202f3e3c7265637420636c6173733d22636f6e746f7572222020783d223131332e352220793d2238362e35222077696474683d223222206865696768743d22323739222f3e3c706f6c79676f6e20636c6173733d22636c732d31222020706f696e74733d223439352e34372038362e3136203239302e343720333635203439352e343720333635203439352e34372038362e3136222f3e203c706f6c79676f6e20636c6173733d22636c732d32222020706f696e74733d223131342e3437203336352e3136203331392e34372038372e3136203131342e34372038372e3136203131342e3437203336352e3136222f3e203c706f6c79676f6e20636c6173733d22636c732d33222020706f696e74733d223439352e34372038362e3136203331382e38382038362e3136203131342e3437203336352e3136203239302e343720333635203439352e34372038362e3136222f3e3c7265637420636c6173733d22636c732d32222020783d223131322e322220793d2238362e3331222077696474683d2233383222206865696768743d22323739222f3e203c7061746820636c6173733d22636c732d33222020643d224d3138342e33372c3132312e34356c372e38342c31352e38382c31372e35322c322e353561312e35322c312e35322c302c302c312c2e38352c322e364c3139372e392c3135342e38346c332c31372e343661312e35322c312e35322c302c302c312d322e32312c312e364c3138332c3136352e36366c2d31352e36382c382e323461312e35322c312e35322c302c302c312d322e32312d312e366c332d31372e34362d31322e36382d31322e333661312e35322c312e35322c302c302c312c2e38352d322e366c31372e35322d322e35352c372e38342d31352e383841312e35332c312e35332c302c302c312c3138342e33372c3132312e34355a222f3e3c7265637420636c6173733d22636c732d3122206865696768743d22323739222077696474683d223139302220783d223131342220793d223836222f3e203c7265637420636c6173733d22636c732d322220206865696768743d22323739222077696474683d223139312220783d223330342220793d223836222f3e3c7265637420636c6173733d22636c732d3122206865696768743d22323738222077696474683d223338322220783d223131332220793d223837222f3e203c706f6c79676f6e20636c6173733d22636c732d3222202020706f696e74733d223439342e3636203836203331382e3036203836203131332e363620333635203238392e363620333634203439342e3636203836222f3e3c7265637420636c6173733d22636c732d31222020783d223131332e332220793d2238352e3831222077696474683d2233383122206865696768743d2232373922202f3e203c7265637420636c6173733d22636c732d32222020783d223131322e322220793d2238362e3331222077696474683d2233383222206865696768743d2232373922202f3e203c7061746820636c6173733d22636c732d33222020643d224d3330342e31372c3137342e31356c31352e35322c33312e34362c33342e37322c3561332c332c302c302c312c312e36372c352e31354c3333312c3234302e32396c352e39332c33342e353861332c332c302c302c312d342e33382c332e31386c2d33312e30352d31362e33322d33312c31362e333261332c332c302c302c312d342e33382d332e31384c3237322c3234302e32392c3234362e38342c3231352e3861332c332c302c302c312c312e36372d352e31356c33342e37322d352c31352e35322d33312e343641332c332c302c302c312c3330342e31372c3137342e31355a222f3e20203c7265637420636c6173733d22636f6e746f7572222020783d223131332e352220793d2238362e35222077696474683d2233383222206865696768743d2232373922202f3e203c706f6c79676f6e2069643d22736861646f77222020636c6173733d22736861646f772220706f696e74733d223131322e35203336352e35203131322e352038372e39322031303820393720313038203337302034393020333730203439342e3637203336352e35203131322e35203336352e35222f3e3c7265637420636c6173733d22636c732d312220783d223131332220793d223836222077696474683d2233383222206865696768743d2232373922202f3e3c7061746820636c6173733d22636c732d322220643d224d3235342e33392c3232302e3732632d31322e30362d32362e38362c362e31352d35392e33352c33372e30352d35372e31382c33352e35342d342c37332e31372c31312e33342c35372e38322c35322e34352d342d34312e36312d31302e30362d332e37362d352e30372c31312e37372e33362c332e35332c332e38312c322e33362c362e32382c332e30392c372c332e33352d342e35362c392e38312d362e36382c31332e33372d332e31392c312e342d372e34332d2e372d31302e35332c312e31372d372e35322c322e38392d372e35342c31312e36352d31332e34392c31342e36392d31302c322d33312c342e36342d33352e37362d362e36352c312d31352e38382d31352e38382d342e35322d32342d31312d352e32392d322e31312d382e33312d362e35312d322e32332d31302e312c372e39312d372e35312d312e35322d32302e39352c342e32382d32392e37372c322e30382d322e32342d2e31352d362d332e31312d352e3133433235322e31352c3230322e36352c3235362e34332c3231342e30362c3235342e33392c3232302e37325a6d32332e39332c313763392e33312c312e31352c31372e33392d352e31362c31372e32392d31342e3231433239342e322c3139322e38342c3234362e37312c3233312e37352c3237382e33322c3233372e37335a6d33312e34312d31352e3433632e372c32302c33302e31322c32302e39312c32362e37342d312e3333433333322e392c3231312e34322c3330382e34392c3230382c3330392e37332c3232322e335a4d3239352e342c323530632d2e37312c31302e38362c372e31342d312e30362c31302e382c342e3231433332312e37392c3235392e36312c3330312c3139372e38372c3239352e342c3235305a222f3e203c7061746820636c6173733d22636c732d322220643d224d3230352e33352c3331322e3339632d322e362c302d342e35382d332d332e362d342e39312e35392d312e31362c312e33362d322e32322c322e30352d332e333361342e32342c342e32342c302c302c302d2e36392d352e38342c32382e39312c32382e39312c302c302c302d332e31392d322e3234632d312e35312d312e30352d332e30392d322d342e35312d332e31372d312e36382d312e33372d312e38362d342e36382d2e35332d362e333861312e38332c312e38332c302c302c312c322e31392d2e353463322e33332e36352c342e36342c312e34342c372c312e38376133312e38342c33312e38342c302c302c302c362e32352e34322c352e33392c352e33392c302c302c302c322e37342d3163342e31372d322e38322c382e32392d352e37312c31322e342d382e36312c352e32342d332e37322c31302e34372d372e34342c31352e36372d31312e32312c322e37362d322c352e34352d342e31322c382e31342d362e32332c332e32352d322e35372c362e37382d312e37352c31302e32392d2e38342c312e32362e33332c312e34322c312e32352e35332c322e32386131322e32332c31322e32332c302c302c312d322c312e3831632d392e33382c362e38322d31382e36342c31332e38332d32382e32312c32302e33376135302e31342c35302e31342c302c302c302d31332e34312c31332e3434632d2e36352c312d312e34342c312e38362d322c322e38356133382e32372c33382e32372c302c302c302d322e31362c342c31342e35372c31342e35372c302c302c312d342e38392c362e33314131342e322c31342e322c302c302c312c3230352e33352c3331322e33395a222f3e3c7061746820636c6173733d22636c732d322220643d224d3331332e37372c3239322e32632d31382e31382c322e31372d33382e38382d322e322d33382e38312d32342e38382e36352d322e36372d312e32322d31342e37392c332e36322d392e31322c312e37332c32342c32342e39322c31352e32332c34322e30392c31352e34372c382c2e322c322e37372d31352e37392c31302e312d31332e3833433333362e38392c3237312e30392c3332352e36322c3238392e38362c3331332e37372c3239322e325a222f3e3c7061746820636c6173733d22636c732d322220643d224d3138382e36362c3135382e313861382c382c302c302c312d352e35372d32632d312e33342d312e31322d312e342d322e35372e30362d332e34394132322e34342c32322e34342c302c302c312c3138382c3135302e3563322e32332d2e37342c342e35392d312e32372c352e39352d332e333861392e382c392e382c302c302c302c312e31352d332e322c31352e35382c31352e35382c302c302c302c302d322e35362c342e33382c342e33382c302c302c312c332e34312d342c322e35342c322e35342c302c302c312c332e32362c312e36312c34332e30352c34332e30352c302c302c312c312e37332c342e38312c31322e39332c31322e39332c302c302c302c362e32362c372e393363352e322c332c31302e34382c362c31352e35352c392e31392c342e35352c322e392c392e31392c352e36312c31342c382e31326139342e31382c39342e31382c302c302c312c392c352e383463312e36362c312e31342c312e38342c322c2e38362c332e37396133302e34372c33302e34372c302c302c312d322e32312c332e32312c312e352c312e352c302c302c312d322e33322e3338632d322e32362d312e35342d342e35352d332e30352d362e38332d342e35382d2e33372d2e32352d2e36392d2e35372d312e30372d2e38322d382e332d352e33342d31362e35322d31302e38322d32352d31352e39352d332e32362d322d372d332e31382d31302e35332d342e373661342e36362c342e36362c302c302c302d332e33392d2e3038632d332c2e392d362e31322c312e36382d392e31382c322e35315a222f3e3c7061746820636c6173733d22636c732d322220643d224d3430372e33342c3133352e36632d2e31392e39312d2e33352c312e38332d2e35362c322e37352d2e35352c322e33372e312c332e34352c322e33392c342e33366131352e35332c31352e35332c302c302c312c332e38362c322e3163322c312e35352c322c352c2e31332c362e37316c2d2e352e3435632d342e312c332e35332d342e31312c332e35372d392c312e343161362e35342c362e35342c302c302c302d362e32372e32392c3130332e32312c3130332e32312c302c302c302d31352e39332c31302e3535632d332e36322c332d372e37372c352e33332d31312e36392c372e39342d332e34382c322e33322d372c342e36342d31302e34362c362e39312d312e35342c312d322c2e38392d322e38352d2e37312d2e372d312e33392d312e32342d322e38382d312e38342d342e333261322e32332c322e32332c302c302c312c2e36382d322e382c34322e35332c34322e35332c302c302c312c342d322e39336331302e36352d362e36382c32312e33342d31332e33312c33322d32306136352e37372c36352e37372c302c302c302c352e33342d342e312c332e31382c332e31382c302c302c302c312e33342d322e363563302d312e35332e31372d332c2e31382d342e353861362e35392c362e35392c302c302c312c322e36382d352e322c322e36382c322e36382c302c302c312c332e34382d2e3232433430352e37322c3133322e35342c3430372e31382c3133332e35372c3430372e33342c3133352e365a222f3e3c7061746820636c6173733d22636c732d322220643d224d3334342e30392c3235382e38376133372e31332c33372e31332c302c302c312c352e34322c312e33384138342e32362c38342e32362c302c302c312c3336382c3237312e343563312e37322c312e33332c332e37342c322e32362c352e362c332e34326134322e35372c34322e35372c302c302c312c332e37382c322e35372c36392e35322c36392e35322c302c302c302c31332e32392c382e31382c32382e35362c32382e35362c302c302c302c31302e35352c322e353163342e332e33312c382e36312e35332c31322e39312e383461392e30392c392e30392c302c302c312c322e32322e35332c322e37322c322e37322c302c302c312c322e31322c322e3839632d2e30352c312e37352e312c332e35312c302c352e32352d2e31342c322e34352d312e37362c332e372d342e32372c332e35322d312e36362d2e31332d332e33322d2e322d352d2e323761332e33322c332e33322c302c302c302d332e33342c322e30372c32332e342c32332e342c302c302c302d312e34352c342e33632d2e34312c312e38382d312e39352c322e36372d332e34372c312e343761382e34352c382e34352c302c302c312d312e38362d322e3432632d312d312e37362d312e39352d332e362d332d352e33386132322e31352c32322e31352c302c302c302d382e37312d382e3136632d332e37362d322e31382d372e32342d342e38342d31302e39322d372e31372d332e312d322d362e34372d332e35362d392e34342d352e37413137332e38392c3137332e38392c302c302c302c3334342e36362c32363661312e33352c312e33352c302c302c312d2e38362d312e3438433334332e39342c3236322e38312c3334342c3236312e31312c3334342e30392c3235382e38375a222f3e3c7265637420636c6173733d22636c732d3122206865696768743d22313430222077696474683d223338322220783d223131342220793d22323235222f3e203c7265637420636c6173733d22636c732d322220206865696768743d22313430222077696474683d223338322220783d223131342220793d223835222f3e3c706f6c79676f6e20636c6173733d22636c732d31222020706f696e74733d223131332e322033363520343935203836203131332e37203836203131332e322033363522202f3e203c706f6c79676f6e20636c6173733d22636c732d32222020706f696e74733d223131332e32203336342e383120343935203336342e3831203439352038352e3831203131332e32203336342e383122202f3e3c7265637420636c6173733d22636f6e746f7572222020783d223131332e352220793d2238362e35222077696474683d2233383222206865696768743d2232373922202f3e3c706f6c79676f6e2069643d22736861646f772220636c6173733d22736861646f772220706f696e74733d223131322e35203336352e35203131322e352038372e39322031303820393720313038203337302034393020333730203439342e3637203336352e35203131322e35203336352e3522202f3e",
  "linkReferences": {},
  "deployedLinkReferences": {}
}